:100000000C940C010C9429010C9429010C942901E5
:100010000C9429010C9429010C9429010C942901B8
:100020000C9429010C9429010C9429010C942901A8
:100030000C9429010C9429010C9429010C94290198
:100040000C9429010C9429010C943A020C94290176
:100050000C9429010C9429010C9429010C94290178
:100060000C9429010C9429015C0F620F680F6E0F2C
:10007000740F7A0F7F0F850F08000000BE9224498D
:10008000123EABAAAA2ABECDCCCC4C3E00000080CA
:10009000BEABAAAAAA3E00000000BF000000803F3D
:1000A0000000000000084178D3BB4387D1133D19FD
:1000B0000E3CC3BD4282AD2B3E68EC8276BED98F2A
:1000C000E1A93E4C80EFFFBE01C4FF7F3F0000006E
:1000D0000000696E6600494E46006E616E004E413A
:1000E0004E004E414E494E495459494E46CDCCCC16
:1000F0003D0AD7233C17B7D13877CC2B329595E6FC
:10010000241FB14F0A000020410000C84200401CDB
:100110004620BCBE4CCA1B0E5AAEC59D7400407A28
:1001200010F35A00A0724E18090010A5D4E8000080
:10013000E87648170000E40B54020000CA9A3B001E
:100140000000E1F505000080969800000040420F95
:10015000000000A08601000000102700000000E859
:1001600003000000006400000000000A000000001E
:10017000000100000000002C76D888DC674F0823BF
:10018000DFC1DFAE59E1B1B796E5E3E453C63AE625
:1001900051997696E8E6C28426EB898C9B62ED4005
:1001A0007C6FFCEFBC9C9F40F2BAA56FA5F4900554
:1001B0005A2AF75C936B6CF9676DC11BFCE0E40D88
:1001C00047FEF520E6B500D0ED902E03009435777C
:1001D000050080841E080000204E0A000000C80CA4
:1001E000333333330F986E12831141EF8D2114890D
:1001F0003BE65516CFFEE6DB18D1844B381BF77C67
:100200001D901DA4BBE424203284725E228100C9AB
:10021000F124ECA1E53D270011241FBECFEFD8E06B
:10022000DEBFCDBF13E0A0E0B1E0ECE8F0E402C037
:1002300005900D92A038B107D9F724E0A0E8B3E00B
:1002400001C01D92AF3FB207E1F70E9422180C9443
:1002500044200C9400008CE00E94C5010E94860C92
:100260000E94FD010E94750D0E94110E85E091E033
:100270000E94CB142FEF87EA91E6215080409040F6
:10028000E1F700C000000895409A00C0409808952A
:10029000CF93DF931F92CDB7DEB7662311F0419A5B
:1002A00001C041983A9A3B9A3C9A3D9A45984498A5
:1002B0004398429887FD459A86FD449A85FD439A66
:1002C00084FD429A89830E9444014598449843984A
:1002D0004298898183FD459A82FD449A81FD439A23
:1002E00080FD429A0E944401429A439A449A459A58
:1002F0000F90DF91CF910895E0EAFFE03197F1F799
:1003000060E00C944801E0EAFFE03197F1F761E02A
:100310000C944801611102C0805801C080540C94B3
:100320007C0180EA9FE00197F1F781E090E0089579
:1003300081E00C947C0182E00C947C01E0EAFFE017
:100340003197F1F78A3019F480EC0C947C0161E06C
:100350000C944801CF93DF93EC018991882319F025
:100360000E949E01FACFDF91CF910895CF93DF9342
:10037000FC018491EF012196882321F00E949E01C7
:10038000FE01F7CFDF91CF9108951F93CF93DF93B5
:10039000182F399A389A3A9A3B9A3C9A3D9AE0E05B
:1003A000FAEF3197F1F7439A429A0E944401E0E054
:1003B000FEE43197F1F70E944401C0E0D1E0FE0174
:1003C0003197F1F70E944401FE013197F1F742980D
:1003D0000E9444012197F1F788E20E947C0188E0A5
:1003E0000E947C010E94980186E00E947C01812F7E
:1003F000DF91CF911F910C947C01E1ECF0E088E15A
:10040000808386E08093C2001092C50088E08093CC
:10041000C400789480818068808308958093C600AA
:100420008091C00085FFFCCF08950F931F93CF9359
:10043000DF931F92CDB7DEB78C01F80181918F0158
:10044000882329F069830E940E026981F6CF662312
:1004500059F08DE00E940E028AE00F90DF91CF915B
:100460001F910F910C940E020F90DF91CF911F916D
:100470000F9108951F920F920FB60F9211242F9390
:100480003F934F935F936F937F938F939F93AF931C
:10049000BF93EF93FF9380918003811121C08091DE
:1004A0008103E82FF0E09091C600E358FB4F908362
:1004B0009D3011F09A3089F410821092810381E00E
:1004C000809380036DE774E081EB93E00E94E81D68
:1004D00081EB93E00E94CE0B15C08F3798F40FC0CC
:1004E0009091C6009D3071F09A3061F08091810347
:1004F000E82FF0E0E358FB4F9083109280038F5F6A
:1005000080938103FF91EF91BF91AF919F918F9164
:100510007F916F915F914F913F912F910F900FBEFF
:100520000F901F901895529A5A9881E080938203F9
:100530002FEF80E792E0215080409040E1F700C02B
:1005400000000895529A5A9AE2E8F3E0108211826C
:1005500012822FEF80E792E0215080409040E1F737
:1005600000C000000895CF93DF9300D0CDB7DEB771
:1005700089839A830E94FB1489819A810E94CB14FB
:100580008EE591E02091850330918603232B59F469
:100590002FEF30E742E0215030404040E1F700C00B
:1005A0000000019779F710928603109285030E944C
:1005B00098010F900F90DF91CF910C949B0161E017
:1005C0000C94150286E191E00E94DF028BE391E03A
:1005D0000C94B3028CE491E00E94DF0285E591E087
:1005E0000C94B30284E691E00E94DF0280E791E080
:1005F0000E94B3028DE791E00E94DF0281E991E061
:100600000C94B302EF92FF920F931F93CF93DF935B
:10061000EB01188219821A821B827C0110E0F7011B
:1006200001917F01002309F459C0802F0E94FF032C
:10063000882309F440C0113071F48881880F982F05
:10064000990F990F890F8883802F0E940604988143
:10065000890F8883E4CF123071F48981880F982F35
:10066000990F990F890F8983802F0E940604998121
:10067000890F8983D4CF133071F49A81990F892F10
:10068000880F880F980F9A83802F0E9406049A8102
:10069000890F8A83C4CF143011F69B81990F892F5B
:1006A000880F880F980F9B83802F0E9406049B81E0
:1006B000890F8B83B4CF0E3241F4112309F4AFCFED
:1006C000143008F0ACCF1F5FAACF023221F4111111
:1006D00005C011E0A4CF112309F4A1CFDF91CF9180
:1006E0001F910F91FF90EF9008950E94930281EA6D
:1006F00091E00E94DF0281EA91E00E94B30284EA65
:1007000091E00E94DF028BEA91E00E94B30289EB44
:1007100091E00E94DF028EEB91E00E94B3028DEC2B
:1007200091E00E94DF0289ED91E00E94B3022FEF79
:1007300089E698E1215080409040E1F700C0000038
:100740000E94E2020E94F2020C94EA02DF92EF920F
:10075000FF920F931F93CF93DF93CDB7DEB76097D0
:100760000FB6F894DEBF0FBECDBFD82E7B01FB01C4
:1007700001900020E9F731978F01061B170B60E00D
:100780008AEE91E00E9415024AE0BE016F5F7F4F42
:100790008D2D90E00E94FD1D60E0CE0101960E942B
:1007A000150260E081E193E00E94150282E0800F73
:1007B0004AE0BE016F5F7F4F90E00E94FD1D61E047
:1007C000CE0101960E9415022FEF86E791E021509D
:1007D00080409040E1F700C0000061E0C7010E9446
:1007E000150260960FB6F894DEBF0FBECDBFDF9145
:1007F000CF911F910F91FF90EF90DF90089590EDB2
:10080000980F81E09A3008F080E0089580538A3094
:1008100008F080E008950E94DF1D21E0892B09F097
:1008200020E0822F089550E00E94EF1D21E0892BE7
:1008300009F020E0822F0895FB0101900020E9F7E4
:100840003197AF01461B570B0C941304FC01CF01E9
:100850002191261719F02111FACF08956111CF01C6
:100860000895FC01CF012191261711F02111FACF33
:100870000895CF93DF93C82F592FD62FDB018A2FEE
:100880008D1B841760F42D91EC2FF52FCF01319142
:10089000321739F03111FACF2111F1CF02C080E0C7
:1008A00090E0DF91CF910895FB0101900020E9F7DE
:1008B0003197E61BF70B20E0422F50E04E175F0701
:1008C00030F4DC013C91311101962F5FF5CF089592
:1008D000CF93DF93EC0167ED71E00E940B0481116F
:1008E00018C062EA72E0CE010E940B04811114C0AC
:1008F00066EF71E0CE010E940B04811110C068EF19
:1009000071E0CE010E940B0481110CC084E090E0E4
:100910000BC080E090E008C081E090E005C082E07C
:1009200090E002C083E090E0DF91CF9108959C01B8
:10093000CB012115310519F467ED71E011C02130AB
:10094000310519F462EA72E00BC02230310519F466
:1009500066EF71E005C02330310521F468EF71E0E6
:100960000C94E81D08950F9308E02CE00E94DD1A16
:100970000F91089560E070E00C94821B6DEF71E0C0
:100980000C94A60361E08DEF91E00C941502E62F24
:100990004115510521F4BC018E2F0C94A603413062
:1009A000510519F461E00C9415020895CF92DF927D
:1009B000EF92FF920F931F93CF93DF93CDB7DEB7E4
:1009C00068970FB6F894DEBF0FBECDBF298B3A8B68
:1009D0004B8B5C8B6D8B7E8B8F8B988F6701E02EA2
:1009E00089899A890B891C892D893E896F89788D1F
:1009F0008B30910509F445C28C30910509F444C24D
:100A0000009719F40E94421025C28130910519F413
:100A10000E94B4121FC28230910519F40E94F11095
:100A200019C28330910519F40E94F61313C2843061
:100A3000910519F40E94FF130DC28530910529F428
:100A400010928C0310928B0309C08630910549F4F3
:100A500081E090E090938C0380938B030E94551467
:100A6000F9C18730910541F4BE016F5F7F4F8091DE
:100A70000201909103010AC08830910551F4BE0132
:100A80006F5F7F4F80910001909101010E94970458
:100A9000E6C18930910579F47093030160930201F6
:100AA0006330710521F07093900360938F0381E0B0
:100AB00080930401E3C18A30910589F470930101A8
:100AC000609300016330710529F070938E03609389
:100AD0008D03EDCF10928E0310928D03E8CF8D30F1
:100AE000910549F46091310470913204809133048E
:100AF00090913404AFC18032910549F400933104E0
:100B0000109332042093330430933404B5C18E30F3
:100B1000910549F460913504709136048091370451
:100B20009091380497C18132910549F400933504BE
:100B30001093360420933704309338049DC18F30CE
:100B4000910549F46091390470913A0480913B0415
:100B500090913C047FC18232910549F4009339049D
:100B600010933A0420933B0430933C0485C18031B8
:100B7000910549F460913D0470913E0480913F04D9
:100B80009091400467C18332910549F400933D047C
:100B900010933E0420933F04309340046DC1813193
:100BA000910549F46091410470914204809143049D
:100BB000909144044FC18432910549F4009341045B
:100BC00010934204209343043093440455C182316E
:100BD000910549F460914504709146048091470461
:100BE0009091480437C18532910549F4009345043A
:100BF0001093460420934704309348043DC1833149
:100C0000910549F46091490470914A0480914B0424
:100C100090914C041FC18632910549F40093490418
:100C200010934A0420934B0430934C0425C1843123
:100C3000910549F460914D0470914E0480914F04E8
:100C40009091500407C18732910549F400934D04F7
:100C500010934E0420934F04309350040DC18531FE
:100C6000910549F4609151047091520480915304AC
:100C700090915404EFC08832910549F400935104D7
:100C8000109352042093530430935404F5C08631DA
:100C9000910549F460915504709156048091570470
:100CA00090915804D7C08932910549F400935504B6
:100CB000109356042093570430935804DDC08731B5
:100CC000910549F46091590470915A0480915B0434
:100CD00090915C04BFC08A32910549F40093590495
:100CE00010935A0420935B0430935C04C5C0883190
:100CF000910549F460915D0470915E0480915F04F8
:100D000090916004A7C08B32910549F400935D0473
:100D100010935E0420935F0430936004ADC089316A
:100D2000910549F4609161047091620480916304BB
:100D3000909164048FC08C32910549F40093610452
:100D400010936204209363043093640495C08A3145
:100D5000910549F46091650470916604809167047F
:100D60009091680477C08D32910549F40093650431
:100D70001093660420936704309368047DC08B3120
:100D8000910549F46091690470916A0480916B0443
:100D900090916C045FC08E32910549F40093690410
:100DA00010936A0420936B0430936C0465C08C31FB
:100DB000910549F460916D0470916E0480916F0407
:100DC0009091700447C08F32910549F400936D04EF
:100DD00010936E0420936F04309370044DC08E31D5
:100DE000910549F4609175047091760480917704BF
:100DF000909178042FC08133910549F400937504D4
:100E000010937604209377043093780435C08D31A5
:100E1000910549F46091710470917204809173049A
:100E20009091740417C08033910549F400937104C4
:100E30001093720420937304309374041DC08F3197
:100E4000910581F46091790470917A0480917B041A
:100E500090917C04AE014F5F5F4F0E94B304CE01BE
:100E6000019617C0C29799F40093790410937A04FD
:100E700020937B0430937C040E94710C85E292E005
:100E800008C08DEF91E005C084E192E002C08AE3E2
:100E900091E0FC012081222321F06E2DA6010E9409
:100EA000C70468960FB6F894DEBF0FBECDBFDF91C2
:100EB000CF911F910F91FF90EF90DF90CF90089509
:100EC000EF92FF92CF93DF93CDB7DEB728970FB69F
:100ED000F894DEBF0FBECDBFFC0120812F7E2A32E9
:100EE00019F08BE090E009C07C0168E272E00E949A
:100EF0001C04882369F08CE090E09A8389831B822C
:100F00001C821D821E8283E090E098878F83E5C358
:100F1000FFEFEF1AFF0A6EE272E0C7010E941C04A5
:100F2000882309F402C16EE272E0C7010E945404F2
:100F30006AE30E9426047C018AE389838FE38A8323
:100F400063E372E0C7010E941C04882389F063E315
:100F500072E0C7010E9454046FE30E943104FC0157
:100F6000808143E050E08F3309F0D9C020E0D8C041
:100F700067E372E0C7010E941C04882329F167E33C
:100F800072E0C7010E94540442E0BE016F5F7F4FD0
:100F90000E943904FC0120812F3309F4AEC02A33AA
:100FA00009F0BBC06CE372E00E945404FC01208194
:100FB0002F3309F4A6C0203209F0AFC001960E9479
:100FC0006804AC0129E0ACC063E472E0C7010E9490
:100FD0001C04882329F163E472E0C7010E945404D1
:100FE00042E0BE016F5F7F4F0E943904FC01208107
:100FF0002F3309F48AC02A3309F060C36CE372E02E
:101000000E945404FC0120812F3309F482C0203255
:1010100009F083C001960E946804AC012AE080C0F8
:1010200068E472E0C7010E941C04882389F068E428
:1010300072E0C7010E9454046FE30E943104FC0176
:10104000808143E050E08F3309F069C023E068C03D
:101050006CE472E0C7010E941C04882389F06CE4F0
:1010600072E0C7010E9454046FE30E943104FC0146
:10107000808143E050E08F3309F051C024E050C03C
:1010800061E572E0C7010E941C04882309F445C091
:1010900061E572E0C7010E94540442E0BE016F5F47
:1010A0007F4F0E943904FC0120812F3339F4809155
:1010B0008B0390918C03892BC1F015C02A3309F062
:1010C000FDC266E572E00E9454047C0168E572E0AE
:1010D0000E941C04811109C06DE572E0C7010E94E5
:1010E0001C04882321F026E003C025E001C02BE08A
:1010F00090E0392F43E050E014C043E050E022E09C
:101100000FC043E050E027E00BC043E050E021E097
:1011100007C043E050E028E003C043E050E02BE08C
:1011200030E060E070E0CB01D0C262E672E0C7015F
:101130000E941C04882309F4C1C262E672E0C70160
:101140000E9454046AE30E9426047C0166E672E071
:101150000E941C048823A1F066E672E0C7010E9489
:101160005404FC0120812F3309F423C2203209F0FA
:10117000A5C201960E94BA0443E050E020E2A4C256
:101180006BE672E0C7010E941C04882309F4ABC01F
:101190006BE672E0C7010E9454046AE30E942604D1
:1011A0007C0161E772E00E941C048823A1F061E7E2
:1011B00072E0C7010E945404FC0120812F3309F41E
:1011C000FFC1203209F07AC201960E94BA0443E0BE
:1011D00050E021E279C266E772E0C7010E941C0478
:1011E0008823A1F066E772E0C7010E945404FC0165
:1011F00020812F3309F4EBC1203209F05FC2019640
:101200000E94BA0443E050E023E25EC26CE772E061
:10121000C7010E941C048823A1F06CE772E0C7019B
:101220000E945404FC0120812F3309F4D7C12032DD
:1012300009F044C201960E94BA0443E050E025E25E
:1012400043C263E872E0C7010E941C048823A1F036
:1012500063E872E0C7010E945404FC0120812F332F
:1012600009F4C3C1203209F029C201960E94BA04D0
:1012700043E050E027E228C268E872E0C7010E941C
:101280001C048823A1F068E872E0C7010E9454049E
:10129000FC0120812F3309F4AFC1203209F00EC2C6
:1012A00001960E94BA0443E050E029E20DC26FE8C3
:1012B00072E0C7010E941C04882309F4FFC16FE893
:1012C00072E0C7010E945404FC0120812F3309F40D
:1012D0009AC1203209F0F2C101960E94BA0443E09B
:1012E00050E02BE2F1C167E972E0C7010E941C04E3
:1012F000882309F4ABC067E972E0C7010E94540477
:101300006AE30E9426047C0161E772E00E941C04EB
:101310008823A1F061E772E0C7010E945404FC0138
:1013200020812F3309F476C1203209F0C7C101961C
:101330000E94BA0443E050E022E2C6C166E772E0D0
:10134000C7010E941C048823A1F066E772E0C70170
:101350000E945404FC0120812F3309F462C1203221
:1013600009F0ACC101960E94BA0443E050E024E2C7
:10137000ABC16CE772E0C7010E941C048823A1F096
:101380006CE772E0C7010E945404FC0120812F33F6
:1013900009F44EC1203209F091C101960E94BA04AD
:1013A00043E050E026E290C163E872E0C7010E948A
:1013B0001C048823A1F063E872E0C7010E94540472
:1013C000FC0120812F3309F43AC1203209F076C1A3
:1013D00001960E94BA0443E050E028E275C168E833
:1013E00072E0C7010E941C048823A1F068E872E043
:1013F000C7010E945404FC0120812F3309F426C147
:10140000203209F05BC101960E94BA0443E050E02B
:101410002AE25AC16FE872E0C7010E941C048823C7
:1014200009F44CC16FE872E0C7010E945404FC014A
:1014300020812F3309F411C1203209F03FC10196F8
:101440000E94BA0443E050E02CE23EC16EE972E033
:10145000C7010E941C048823A1F06EE972E0C70155
:101460000E945404FC0120812F3309F4FDC0203276
:1014700009F024C101960E94BA0443E050E02DE235
:1014800023C161EA72E0C7010E941C048823A1F015
:1014900061EA72E0C7010E945404FC0120812F33ED
:1014A00009F4E9C0203209F009C101960E94BA048A
:1014B00043E050E02EE208C161E572E0C7010E94FE
:1014C0001C04882309F4FAC061E572E0C7010E9498
:1014D00054046AE30E9426047C0164EA72E00E94DC
:1014E0001C048823A1F064EA72E0C7010E9454043E
:1014F000FC0120812F3309F4C5C0203209F0DEC081
:1015000001960E94BA0443E050E02FE2DDC06BEA8E
:1015100072E0C7010E941C048823A1F06BEA72E00C
:10152000C7010E945404FC0120812F3309F4B1C08B
:10153000203209F0C3C001960E94BA0443E050E093
:1015400021E3C2C063EB72E0C7010E941C04882340
:10155000A1F063EB72E0C7010E945404FC012081FA
:101560002F3309F49DC0203209F0A8C001960E94D3
:10157000BA0443E050E020E3A7C06FEB72E0C7017C
:101580000E941C04882309F499C06FEB72E0C70124
:101590000E945404FC0120812F3309F488C02032BA
:1015A00009F08CC001960E94BA0443E050E022E3A7
:1015B0008BC043E050E060E070E0CB012DE084C0E0
:1015C00043E050E060E070E0CB012EE07DC043E0FE
:1015D00050E060E070E0CB0120E176C043E050E0F5
:1015E00060E070E0CB0122E16FC043E050E060E0DA
:1015F00070E0CB0124E168C043E050E060E070E0BF
:10160000CB0126E161C043E050E060E070E0CB0137
:1016100028E15AC043E050E060E070E0CB012FE0E9
:1016200053C043E050E060E070E0CB0121E14CC0EA
:1016300043E050E060E070E0CB0123E145C043E0CF
:1016400050E060E070E0CB0125E13EC043E050E0B7
:1016500060E070E0CB0127E137C043E050E060E09C
:1016600070E0CB0129E130C043E050E060E070E081
:10167000CB012AE129C043E050E060E070E0CB01FB
:101680002BE122C043E050E060E070E0CB012CE1B0
:101690001BC043E050E060E070E0CB012EE114C0DD
:1016A00043E050E060E070E0CB012DE10DC043E08D
:1016B00050E060E070E0CB012FE106C043E050E075
:1016C00060E070E0CB012BE030E029833A836B834C
:1016D0007C838D839E8358874F8329813A814B81F8
:1016E0005C816D817E818F81988528960FB6F894F4
:1016F000DEBF0FBECDBFDF91CF91FF90EF90089579
:10170000EF92FF920F93CF93DF93CDB7DEB72A9777
:101710000FB6F894DEBF0FBECDBF062F79878A873C
:101720000E94FB147985872F9A850E946007E12C1F
:10173000F12C0E94D6042A960FB6F894DEBF0FBE95
:10174000CDBFDF91CF910F91FF90EF900895EF9271
:10175000FF920F93CF93DF93CDB7DEB72A970FB6E3
:10176000F894DEBF0FBECDBF89879A870E94FB1415
:1017700089859A850E946007EE24E394F12C00E0AD
:101780000E94D6042A960FB6F894DEBF0FBECDBFD6
:10179000DF91CF910F91FF90EF9008951F93CF931A
:1017A000DF93FC011081112309F48DC0EC016BEC77
:1017B00072E00E941C04882321F081E0809383035F
:1017C00082C06AED72E0CE010E941C04882329F0D9
:1017D000109283031092840376C06AEE72E0CE0109
:1017E0000E941C04882321F081E0809384036BC055
:1017F00066EF72E0CE010E941C04882349F067E87E
:1018000073E0CE010D96DF91CF911F910C940203EE
:1018100064E073E0CE010E941C04811154C065E2B3
:1018200072E0CE010E941C04882319F081E090E050
:1018300013C063E173E0CE010E941C04882319F0F9
:1018400083E090E009C069E173E0CE010E941C04CE
:10185000882339F082E090E090938603809385039B
:1018600032C06EE173E0CE010E941C04882311F1A6
:101870006EE173E0CE010E945404FC01C0E0CF0190
:1018800021912C3269F0222361F0CC0F8C2F880F2C
:10189000880FC80F20532A3008F020E0C20FEFCF86
:1018A000CF016AE30E9426046C2F782F892F0E94B3
:1018B000800B09C01F7E1A3231F4CE01DF91CF9127
:1018C0001F910C94A70BDF91CF911F9108958AE08F
:1018D00090E00E94D31F91E08F3F09F490E0892FA0
:1018E00008956FE28AE090E00E94E51F4CE450E02A
:1018F00064E170E081E394E00C94DB1F4CE450E081
:1019000064E170E081E394E00C94C31F0E94670CD3
:1019100081110C947E0C80E090E0A0EAB0E480930A
:10192000310490933204A0933304B09334048BEACF
:101930009AEAAAE0B4E38093350490933604A09326
:101940003704B09338041092390410923A0410927C
:101950003B0410923C048DE595E5A1EBB5E3809343
:101960003D0490933E04A0933F04B0934004109232
:10197000410410924204109243041092440486E4FD
:101980009DE7A0E6B7E38093450490934604A093B7
:101990004704B09348041092490410924A041092EC
:1019A0004B0410924C048FE89DEBA9E0B4E38093C4
:1019B0004D0490934E04A0934F04B09350041092A2
:1019C000510410925204109253041092540487E967
:1019D0009CE0A6E9B0E38093550490935604A0934D
:1019E0005704B09358041092590410925A0410925C
:1019F0005B0410925C0482E59FEDA9EDB2E3809355
:101A00005D0490935E04A0935F04B0936004109211
:101A1000610410926204109263041092640482E5DF
:101A200098E4A9EEB4E48093650490936604A093CF
:101A30006704B09368048AE999E4A9EEB4E480935A
:101A4000690490936A04A0936B04B0936C0480E0E3
:101A500090E0A8ECB2E480936D0490936E04A093A0
:101A60006F04B093700489E49DE9A0E8BBE3809320
:101A7000710490937204A0937304B093740480E093
:101A800090E0AAE7B4E48093750490937604A09361
:101A90007704B093780480E090E8ABE3B5E48093FA
:101AA000790490937A04A0937B04B0937C04089506
:101AB0002A9808952A9A089528988AE18A95F1F734
:101AC00000C0289A089529988AE18A95F1F700C004
:101AD000299A08958CB5837F8CBD08958CB5846058
:101AE0008CBD8CB5877F8CBD0895239A259A229A48
:101AF000219A209A24982C9A2A9A299A289A8CB565
:101B000083658CBD8CB58F7D8CBD0C946E0D8EBDA8
:101B10000DB407FEFDCF8EB50895809178009091A9
:101B200079008D339105E8F0803B9105E8F08B3129
:101B300021E09207E0F0843821E09207D8F0853F59
:101B400021E09207D0F0823722E09207C8F08E3F62
:101B500022E09207C0F0833A9340C0F088E090E022
:101B6000089580E090E0089581E090E0089582E09B
:101B700090E0089583E090E0089584E090E0089577
:101B800085E090E0089586E090E0089587E090E099
:101B900008951F93CF93DF931F92CDB7DEB7182F11
:101BA00099830E946A0D89810E94870D812F0E946E
:101BB000870D0F90DF91CF911F910C945C0DCF9307
:101BC000DF931F92CDB7DEB789830E946A0D8981AA
:101BD0000E94870D0F90DF91CF910C94630D81507F
:101BE0009048AC01440F551F23E030E0042E02C0A2
:101BF000220F331F0A94E2F72095309580919103CC
:101C0000909192038223932302C0660F771F4A9517
:101C1000E2F7862B972B90939203809391030C9479
:101C2000C90D86E480937C0087EE80937A00559AF4
:101C30005D9880919103909192030C94C90D60E09E
:101C400070E081E090E00E94EF0D60E070E082E0E3
:101C500090E00E94EF0D60E070E083E090E00E9471
:101C6000EF0D60E070E084E090E00E94EF0D60E036
:101C700070E085E090E00E94EF0D60E070E086E0AB
:101C800090E00E94EF0D60E070E087E090E00C943F
:101C9000EF0D8091AE039091AF03892B29F0109244
:101CA000AF031092AE0318C080910201909103011E
:101CB0008330910568F401969093030180930201AB
:101CC0008330910549F09093900380938F0304C073
:101CD000109203011092020181E0809304010895A3
:101CE0008091AE039091AF03019739F081E090E0CD
:101CF0009093AF038093AE031EC08091000190913A
:101D000001018330910590F4019690930101809335
:101D100000018330910529F090938E0380938D0309
:101D200009C010928E0310928D0304C0109201011D
:101D30001092000181E08093040108958091AE0328
:101D40009091AF03029749F082E090E09093AF0347
:101D50008093AE0381E08093040108958091AE03E7
:101D60009091AF03039749F083E090E09093AF0325
:101D70008093AE0381E08093040108958091AE03C7
:101D80009091AF03049751F084E090E09093AF03FB
:101D90008093AE0381E080930401089580918B03CA
:101DA00090918C03892B39F481E090E090938C031F
:101DB00080938B03089510928C0310928B030895E7
:101DC00008958091AC039091AD03892B39F481E0A3
:101DD00090E09093AD038093AC0304C01092AD03E8
:101DE0001092AC0381E08093040108952091AE032A
:101DF0003091AF038091820325303105C1F125E098
:101E000030E03093AF032093AE0391E09093040150
:101E100081111EC061E070E088E090E00E94EF0D4B
:101E20000E94750380918303882369F08091840365
:101E3000882349F062E070E088E090E00E94EF0DB6
:101E40000E94FB140EC00E94FB1484E293E01DC0AC
:101E50000E94FB1480918303882329F080918403DE
:101E600081110C94021585E393E00C94CB14882324
:101E700089F20E94A20260E070E088E090E00E9497
:101E8000EF0D0E94FB1486E493E00E94CB142FEF29
:101E90008FE097E2215080409040E1F700C00000C1
:101EA00008950E948D0D019788309105A0F58C5CF6
:101EB0009F4FFC010C94D71A0E948D0D0197E1F3FE
:101EC0000C94490E0E948D0D0297E1F30C94700E54
:101ED0000E948D0D0397E1F30C949E0E0E948D0DD0
:101EE0000497E1F30C94AE0E0E948D0D0597E1F37B
:101EF0000C94BE0E0E948D0D0697E1F308950E948A
:101F00008D0D0797E1F30C94E10E0E948D0D08975B
:101F1000E1F30C94F60E08954F925F926F927F92C8
:101F2000AF92BF92CF92DF92EF92FF920F931F93E7
:101F3000CF93DF93CDB7DEB729970FB6F894DEBF06
:101F40000FBECDBF0E946E0D0E94580D80E00E9412
:101F5000870D482F80E049870E94870DF82E80E08A
:101F60000E94870D482E80E00E94870D88870E947E
:101F70005A0D498545FB002700F910E0942F907316
:101F80008885903321F0B12C992329F002C0BB241D
:101F9000B394A12C02C0AA24A3948295869587703D
:101FA000512C612C712C93E0440C551C661C771C41
:101FB0009A95D1F7480E511C611C711C8F2D90E031
:101FC000A0E0B0E02BE0880F991FAA1FBB1F2A9545
:101FD000D1F773016201C80ED91EEA1EFB1E4F71B4
:101FE00050E060E070E033E1440F551F661F771F3B
:101FF0003A95D1F7C40ED51EE61EF71EC701B601ED
:102000000115110559F00E943019609393037093E4
:102010009403809395039093960311C00E94301906
:1020200020E030E040E85BE40E944A1860939303AC
:10203000709394038093950390939603FA94B092CF
:10204000AB03C982DA82EB82FC822C2D3A814B8170
:102050005C81602F7B2D8A2D90E029960FB6F89435
:10206000DEBF0FBECDBFDF91CF911F910F91FF90CB
:10207000EF90DF90CF90BF90AF907F906F905F9088
:102080004F9008954F925F926F927F928F929F929E
:10209000AF92BF92CF92DF92EF92FF92CF93DF93F6
:1020A000CDB7DEB72E970FB6F894DEBF0FBECDBF0B
:1020B00080E090E00E94DF0D0E948C0F2FEF86E4FD
:1020C00099E0215080409040E1F700C000000E945C
:1020D0008C0F288739874A875B876C877D878E8737
:1020E00080E490E00E94DF0D0E948C0F2FEF86E4C9
:1020F00099E0215080409040E1F700C000000E942C
:102100008C0F29833A834B835C83C0906504D09005
:102110006604E0906704F0906804809069049090F1
:102120006A04A0906B04B0906C04C701B60190588B
:10213000A50194010E94351A2B013C01688579851F
:102140008A859B850E9430199B01AC01C501B401B1
:102150000E94351A4B015C0169817A818B819C81D7
:102160000E9430199B01AC01C501B4010E94BC184A
:102170009B01AC01C701B6010E944A189B01AC014A
:10218000C301B2010E94BC1860939F037093A00327
:102190008093A1039093A2032091AE033091AF03EB
:1021A0002230310531F022E030E03093AF0320934C
:1021B000AE0321E0209304012E960FB6F894DEBF03
:1021C0000FBECDBFDF91CF91FF90EF90DF90CF900A
:1021D000BF90AF909F908F907F906F905F904F9047
:1021E00008957F928F929F92AF92BF92CF92DF928B
:1021F000EF92FF920F931F93CF93DF93CDB7DEB78C
:1022000027970FB6F894DEBF0FBECDBF80910201B5
:10221000909103019C01235031092230310520F0B7
:102220009093900380938F0380918F0390919003FC
:10223000009719F480EB90E00AC08130910519F401
:1022400084EB90E004C0029721F482EB90E00E94BE
:10225000DF0D0E948C0F772E082F29833A834B8342
:102260005C836D837E838F8389809A80AB80BC8002
:1022700080918F0390919003892B09F05FC0C50175
:10228000B4010E9430196B017C012091350430911A
:1022900036044091370450913804609131047091B4
:1022A000320480913304909134040E94351A9B01CA
:1022B000AC01C701B6010E94351A20913904309152
:1022C0003A0440913B0450913C040E944B186B012E
:1022D0007C0180910201909103010397A1F520E018
:1022E00030E040E850E4C701B6010E94E01918163A
:1022F00074F020E030E040E850ECC701B6010E94E5
:10230000B71887FD04C0711002C00023E1F081E01E
:1023100090E09093900380938F0384EB90E00E9471
:10232000DF0D0E948C0F2FEF86E499E02150804052
:102330009040E1F700C0000011E006C010E0C12CA1
:10234000D12C760101C010E080918F039091900311
:10235000019709F07CC0111179C0C501B4010E9438
:1023600030196B017C0120913D0430913E04409175
:102370003F04509140046091310470913204809187
:102380003304909134040E94351A9B01AC01C701BB
:10239000B6010E94351A20914104309142044091C7
:1023A0004304509144040E944B186B017C018091BE
:1023B000020190910301039709F049C020E030E049
:1023C00040E252E4C701B6010E94E019181674F009
:1023D00020E030E040E252ECC701B6010E94B7189D
:1023E00087FD04C0711002C0002349F082E090E034
:1023F0009093900380938F0382EB90E01AC020E0CB
:1024000030E040E850E4C701B6010E94B718181642
:10241000F4F020E030E040E850ECC701B6010E9443
:10242000E01987FD14C01092900310928F0380EB87
:1024300090E00E94DF0D0E948C0F2FEF86E499E060
:10244000215080409040E1F700C0000011E08091F1
:102450008F0390919003029709F05BC0111159C04E
:10246000C501B4010E9430196B017C012091450423
:1024700030914604409147045091480460913104E2
:102480007091320480913304909134040E94351A83
:102490009B01AC01C701B6010E94351A2091490485
:1024A00030914A0440914B0450914C040E944B18C7
:1024B0006B017C018091020190910301039749F522
:1024C00020E030E040E252E4C701B6010E94B718B4
:1024D0001816FCF020E030E040E252ECC701B601F3
:1024E0000E94E01987FD15C081E090E09093900371
:1024F00080938F0384EB90E00E94DF0D0E948C0F8D
:102500002FEF86E499E0215080409040E1F700C031
:102510000000C0929703D0929803E0929903F09242
:102520009A038091AE039091AF03892B21F0109212
:10253000AF031092AE0381E080930401C701B6019E
:1025400027960FB6F894DEBF0FBECDBFDF91CF91B7
:102550001F910F91FF90EF90DF90CF90BF90AF90C1
:102560009F908F907F9008958F929F92AF92BF928D
:10257000CF92DF92EF92FF920F931F93CF93DF934F
:10258000CDB7DEB727970FB6F894DEBF0FBECDBF2D
:1025900080910001909101019C012350310922306A
:1025A000310520F090938E0380938D0380918D03ED
:1025B00090918E03009719F488E890E00AC081306A
:1025C000910519F480E890E004C0029721F488EAAC
:1025D00090E00E94DF0D0E948C0F072F182F298397
:1025E0003A834B835C836D837E838F8389809A805B
:1025F000AB80BC8080918D0390918E03892B09F074
:102600004EC0C501B4010E943019209131043091AF
:10261000320440913304509134040E94351A2091C1
:1026200055043091560440915704509158040E942B
:10263000351A2091590430915A0440915B0450910D
:102640005C040E944B186B017C0180910001909109
:102650000101039739F52AE037ED43E25DE3C70155
:10266000B6010E94E019181624F0011102C01123CE
:10267000C9F081E090E090938E0380938D0380E811
:1026800090E00E94DF0D0E948C0F2FEF86E499E00E
:10269000215080409040E1F700C0000003C0C12CF1
:1026A000D12C760180918D0390918E03019709F0D2
:1026B00047C0C501B4010E94301920913104309106
:1026C000320440913304509134040E94351A209111
:1026D0005D0430915E0440915F04509160040E945B
:1026E000351A209161043091620440916304509145
:1026F00064040E944B186B017C0180910001909151
:1027000001010397E9F42AE037ED43E25DE3C701F5
:10271000B6010E94B71818169CF010928E03109202
:102720008D0388E890E00E94DF0D0E948C0F2FEF50
:1027300086E499E0215080409040E1F700C000001D
:1027400080918D0390918E03029721F5C501B4010C
:102750000E943019209131043091320440913304A9
:10276000509134040E94351A20914D0430914E044A
:1027700040914F04509150040E94351A2091510409
:102780003091520440915304509154040E944B18CC
:102790006B017C01C0929B03D0929C03E0929D034D
:1027A000F0929E038091AE039091AF03019731F0B8
:1027B00081E090E09093AF038093AE0381E080933B
:1027C0000401C701B60127960FB6F894DEBF0FBE0D
:1027D000CDBFDF91CF911F910F91FF90EF90DF90D0
:1027E000CF90BF90AF909F908F900895609193038A
:1027F0007091940380919503909196030895CF93DF
:10280000DF93CDB7DEB727970FB6F894DEBF0FBEC4
:10281000CDBF80E490E00E94DF0D0E948C0F2FEF6F
:1028200086E499E0215080409040E1F700C000002C
:102830000E948C0F29833A834B835C8369817A8160
:102840008B819C810E94301920E030E040E853E306
:102850000E94351A209131043091320440913304A2
:10286000509134040E94351A6093A3037093A4031B
:102870008093A5039093A6032091AE033091AF03FC
:102880002330310531F023E030E03093AF03209363
:10289000AE0321E02093040127960FB6F894DEBF23
:1028A0000FBECDBFDF91CF9108958F929F92AF92CF
:1028B000BF92CF92DF92EF92FF9280918B03909123
:1028C0008C03892B09F50E944210C0906D04D090B2
:1028D0006E04E0906F04F0907004A70196010E94CE
:1028E0004A184B015C0120917104309172044091AF
:1028F000730450917404C701B6010E94351A9B01FC
:10290000AC01C501B40124C00E944210209175049D
:102910003091760440917704509178040E94BC185D
:102920000E94ED192091790430917A0440917B0442
:1029300050917C040E94BC182FE03FEC4BE55BE318
:102940000E944B189B01AC0160E070E080E89FE3BF
:102950000E94BC186093A7037093A8038093A903F7
:102960009093AA032091AE033091AF032430310538
:1029700031F024E030E03093AF032093AE0321E048
:1029800020930401FF90EF90DF90CF90BF90AF9025
:102990009F908F9008950F931F93CF938C01F80110
:1029A000C1918F01CC2381F08091B003883019F45C
:1029B0008AE00E949E018C2F0E949E019091B0039C
:1029C0009F5F9093B003EBCFCF911F910F9108952C
:1029D000CF93C82F8091B003883019F48AE00E9409
:1029E0009E018C2F0E949E018091B0038F5F809387
:1029F000B003CF9108950E9498010E949B0110920C
:102A0000B00308950F931F93CF93DF9300D000D0AE
:102A1000CDB7DEB702E813E0F80185814AE0BE01D8
:102A20006F5F7F4F90E00E94FD1DCE0101960E94D6
:102A3000CB148EE20E94E814F80186814AE0BE01C0
:102A40006F5F7F4F90E00E94FD1DCE0101960E94B6
:102A5000CB148EE20E94E814F80187814AE0BE019F
:102A60006F5F7F4F90E00E94FD1DCE0101960E9496
:102A7000CB148EE20E94E814F80180854AE0BE0182
:102A80006F5F7F4F90E00E94FD1DCE0101960E9476
:102A9000CB140F900F900F900F90DF91CF911F915B
:102AA0000F910895611102C0806803C0613019F46C
:102AB000806C0C947C01089580E40E947C0180E08D
:102AC0000E9483018FE10E94830180E10E948301C3
:102AD00087E10E94830184E10E94830185E10E94D5
:102AE000830180E00E94830180E00C948301809147
:102AF0008303882361F080918403882341F00E943E
:102B00005C1587EC0E947C0180E00C9483010895A1
:102B10000F931F93CF938C01C62F61E084E00E9436
:102B20008A010330110511F481E401C08DE40E9493
:102B3000E81481E38C0FCF911F910F910C94E8144E
:102B4000BF92CF92DF92EF92FF920F931F93CF939A
:102B5000DF93CDB7DEB761970FB6F894DEBF0FBE37
:102B6000CDBF6B017C01B42E20E030E0A9010E94B2
:102B7000B71887FF08C08DE20E94E814F7FAF094B6
:102B8000F7F8F09403C080E20E94E81420E030E0FF
:102B900040E85FE3C701B6010E94B71887FF25C070
:102BA0002AE037ED43E25CE3C701B6010E94B718A3
:102BB00087FD0EC02DEC3CEC4CEC5DE3C701B6018B
:102BC0000E94B718182F111F1127111F1E5F01C077
:102BD00014E020E030E04AE754E4C701B6010E9467
:102BE000351A6B017C013DE678C020E030E04AE711
:102BF00054E4C701B6010E94B71887FF16C020E051
:102C000030E040E251E4C701B6010E94B71887FDE9
:102C100060C020E030E048EC52E4C701B6010E94F9
:102C2000B71887FD58C012E057C020E034E244E7EF
:102C300059E4C701B6010E94B71887FF25C020E0FC
:102C400030E44CE156E4C701B6010E94B71887FD95
:102C50000EC020E030E543EC57E4C701B6010E9406
:102C6000B718182F111F1127111F1E5F01C014E084
:102C700020E030E04AE754E4C701B6010E94BC18E6
:102C80006B017C013BE629C020E836E948E15BE4C2
:102C9000C701B6010E94B71887FD0EC020E23CEBC9
:102CA0004EEB5CE4C701B6010E94B718182F111F44
:102CB0001127111F1E5F01C014E020E034E244E739
:102CC00059E4C701B6010E94BC186B017C013DE4C8
:102CD00004C014E001C013E030E02AEF2B0D210FF7
:102CE0008E010F5F1F4F4B2DC701B601398B0E941C
:102CF000621BC8010E94CB143989332319F0832F3A
:102D00000E94E81461960FB6F894DEBF0FBECDBFE7
:102D1000DF91CF911F910F91FF90EF90DF90CF90B7
:102D2000BF90089581110E94F110809104018823C1
:102D300009F441C00E941F0E62E070E081E090E063
:102D40000E94EF0D0E94FB148091AC039091AD03A3
:102D5000892B21F484E593E00E94CB148091AB038E
:102D6000811117C08091AC039091AD03892B11F0B4
:102D700048E001C046E0609197037091980380910C
:102D8000990390919A030E94A01586E50E94E81489
:102D900004C087E593E00E94CB1410920401609177
:102DA0008F037091900380910201909103010E9422
:102DB00088150C947715089581110E94B4128091A2
:102DC0000401882309F441C00E941F0E62E070E0F4
:102DD00082E090E00E94EF0D0E94FB148091AC0312
:102DE0009091AD03892B21F481E693E00E94CB14EE
:102DF0008091AB03811117C08091AC039091AD031A
:102E0000892B11F048E001C046E060919B0370916E
:102E10009C0380919D0390919E030E94A01581E4E4
:102E20000E94E81404C087E593E00E94CB1410923E
:102E3000040160918D0370918E0380910001909147
:102E400001010E9488150C947715089581110E9444
:102E5000421080910401882371F10E941F0E62E0EC
:102E600070E083E090E00E94EF0D0E94FB148091DF
:102E7000AC039091AD03892B21F484E693E00E948A
:102E8000CB148091AC039091AD03892B11F048E0F5
:102E900001C046E060919F037091A0038091A1035F
:102EA0009091A2030E94A01584EF0E94E814109252
:102EB00004010C9477150895CF92DF92EF92FF9260
:102EC00081110E94FF1380910401882309F443C0FB
:102ED0000E941F0E62E070E084E090E00E94EF0D1F
:102EE0000E94FB148091AC039091AD03892B21F4D7
:102EF00083EF91E00E94CB14C090A303D090A40371
:102F0000E090A503F090A60328EF33E543EB5FE3E1
:102F1000C701B6010E94B71887FF11C08091AC03AA
:102F20009091AD03892B11F048E001C046E0C70144
:102F3000B6010E94A01586E50E94E81404C087E649
:102F400093E00E94CB1410920401FF90EF90DF9069
:102F5000CF900C947715FF90EF90DF90CF9008956D
:102F600081110E945514809104018823F1F10E947F
:102F70001F0E62E070E085E090E00E94EF0D0E947D
:102F8000FB148091AC039091AD03892B21F482E76F
:102F900093E00E94CB148091AC039091AD03892BF8
:102FA00011F048E001C046E06091A7037091A803CA
:102FB0008091A9039091AA030E94A0158FED0E9411
:102FC000E81483E40E94E81480918B0390918C03B1
:102FD000892B19F485E793E002C08AE793E00E9409
:102FE000CB14109204010C9477150895809104017C
:102FF000882321F00E941F0E109204010895209151
:10300000AE033091AF0322303105A1F038F4211521
:10301000310561F02130310559F008952430310532
:1030200069F050F02530310559F008950C9492164E
:103030000C94DC160C9426170C945C170C94B017A7
:103040000C94F617CF93DF931F92CDB7DEB72FEF17
:1030500089E698E1215080409040E1F700C00000EF
:103060000E942B0110E0163018F41F5F80E002C0B0
:1030700010E081E089830E94510F89810E94FF172F
:103080002FEF80E792E0215080409040E1F700C0B0
:103090000000E9CF5058BB27AA270E9462180C9461
:1030A000A6190E94981938F00E949F1920F039F44F
:1030B0009F3F19F426F40C9495190EF4E095E7FB64
:1030C0000C948F19E92F0E94B71958F3BA176207A9
:1030D00073078407950720F079F4A6F50C94D919A5
:1030E0000EF4E0950B2EBA2FA02D0B01B901900123
:1030F0000C01CA01A0011124FF27591B99F0593F67
:1031000050F4503E68F11A16F040A22F232F342FAE
:103110004427585FF3CF469537952795A795F040FC
:103120005395C9F77EF41F16BA0B620B730B840B11
:10313000BAF09150A1F0FF0FBB1F661F771F881FC9
:10314000C2F70EC0BA0F621F731F841F48F4879521
:1031500077956795B795F7959E3F08F0B0CF939513
:10316000880F08F09927EE0F9795879508950E948C
:103170006B1908F481E008950E94D0180C94A619E8
:103180000E949F1958F00E94981940F029F45F3F5F
:1031900029F00C948F1951110C94DA190C9495198B
:1031A0000E94B71968F39923B1F3552391F3951B46
:1031B000550BBB27AA2762177307840738F09F5F58
:1031C0005F4F220F331F441FAA1FA9F335D00E2EC5
:1031D0003AF0E0E832D091505040E695001CCAF732
:1031E0002BD0FE2F29D0660F771F881FBB1F2617F5
:1031F00037074807AB07B0E809F0BB0B802DBF01CC
:10320000FF2793585F4F3AF09E3F510578F00C949A
:103210008F190C94DA195F3FE4F3983ED4F3869546
:1032200077956795B795F7959F5FC9F7880F911DBB
:103230009695879597F90895E1E0660F771F881FA7
:10324000BB1F621773078407BA0720F0621B730B5A
:10325000840BBA0BEE1F88F7E0950895E89409C037
:1032600097FB3EF490958095709561957F4F8F4FB9
:103270009F4F9923A9F0F92F96E9BB279395F695CF
:10328000879577956795B795F111F8CFFAF4BB0F4D
:1032900011F460FF1BC06F5F7F4F8F4F9F4F16C0B1
:1032A000882311F096E911C0772321F09EE8872F3B
:1032B000762F05C0662371F096E8862F70E060E0F7
:1032C0002AF09A95660F771F881FDAF7880F969570
:1032D000879597F90895990F0008550FAA0BE0E814
:1032E000FEEF16161706E807F907C0F012161306C8
:1032F000E407F50798F0621B730B840B950B39F408
:103300000A2661F0232B242B252B21F408950A266D
:1033100009F4A140A6958FEF811D811D089597F9AD
:103320009F6780E870E060E008959FEF80EC08956B
:1033300000240A9416161706180609060895002494
:103340000A9412161306140605060895092E03940E
:10335000000C11F4882352F0BB0F40F4BF2B11F482
:1033600060FF04C06F5F7F4F8F4F9F4F089557FDE1
:103370009058440F551F59F05F3F71F04795880FE3
:1033800097FB991F61F09F3F79F08795089512167A
:1033900013061406551FF2CF4695F1DF08C0161626
:1033A00017061806991FF1CF8695710561050894D7
:1033B0000895E894BB2766277727CB0197F90895EE
:1033C0000E946B1908F48FEF089516F00C94A21A5E
:1033D0000C94951968940C948F190E94BF19A8F346
:1033E0009923C1F3AEF3DF93CF931F930F93FF9213
:1033F000C92FDD2788232AF02197660F771F881FA2
:10340000DAF720E030E040E85FEB9FE3883920F016
:10341000803E38F021968F770E944B18E8E7F0E065
:1034200004C00E944B18E5EAF0E00E94B01A8B013C
:10343000BE01EC01FB2E6F5771097595771F880B44
:10344000990B0E94301928E132E741E35FE30E94C3
:10345000481AAF2D9801AE01FF900F911F91CF91A7
:10346000DF910E9462180C94A6190E94481A0C94CD
:10347000A6190E94981938F00E949F1920F09523F0
:1034800011F00C948F190C94951911240C94DA19DD
:103490000E94B71970F3959FC1F3950F50E0551F27
:1034A000629FF001729FBB27F00DB11D639FAA2799
:1034B000F00DB11DAA1F649F6627B00DA11D661FE8
:1034C000829F2227B00DA11D621F739FB00DA11D09
:1034D000621F839FA00D611D221F749F3327A00DC3
:1034E000611D231F849F600D211D822F762F6A2F5F
:1034F00011249F5750409AF0F1F088234AF0EE0FC4
:10350000FF1FBB1F661F771F881F91505040A9F7F0
:103510009E3F510580F00C948F190C94DA195F3F8F
:10352000E4F3983ED4F3869577956795B795F7952C
:10353000E7959F5FC1F7FE2B880F911D96958795A4
:1035400097F908959F3F31F0915020F48795779532
:103550006795B795880F911D9695879597F908956A
:10356000DF93CF931F930F93FF92EF92DF927B0134
:103570008C01689406C0DA2EEF010E94481AFE0101
:10358000E894A5912591359145915591A6F3EF01C8
:103590000E946218FE019701A801DA9469F7DF9092
:1035A000EF90FF900F911F91CF91DF910895EE0F53
:1035B000FF1F0590F491E02D0994CF92DF92FF92C6
:1035C0000F931F93CF93DF93EA01F02E122F283031
:1035D00008F017E000E0212FAE010E94DF1C988167
:1035E000292F2870DE0190FF06C0211104C011961A
:1035F0002DE228830CC0F1FE03C011963BE204C00B
:10360000F0FE03C0119630E23883211105C092FF0D
:103610000DC062ED70E002C06AED70E0F2FE02C023
:103620006C5F7F4FCD010E94C01D43C0FD013196EC
:1036300029812C93213309F09F7E1123B9F0AE012B
:103640004E5F5F4F6F01312F2EE2DA016D91AD01B8
:10365000D6012D936D013150262FB9F71150DF019E
:10366000A10FB11DFD01329611966C93F2FC02C0C0
:1036700025E601C025E42083DF01129687FF04C000
:103680009DE29183819508C0811104C094FF02C01E
:103690009DE201C09BE2918390E38A301CF09F5F22
:1036A0008A50FBCF9C93805D11968C931197129654
:1036B0001C92CE01DF91CF911F910F91FF90DF906F
:1036C000CF900895EF920F931F93CF93DF93E8016C
:1036D00047FD02C034E001C034E1E42F440FFF0B8A
:1036E000F7FF03C0F195E195F109E32E022F2E2F8C
:1036F000AE010E94221ECE01DF91CF911F910F914A
:10370000EF900895A0E0B0E0E8E8FBE10C9402201F
:10371000EC017B016115710519F0DB018D939C9320
:103720008E010F5F1F4F7880872D90E00E94B71D9C
:10373000892B11F0E801F4CFBDE27B1205C00F5FC9
:103740001F4F7980C1E008C0EBE27E1204C08E01F9
:103750000E5F1F4F7980C0E06801F1E0CF1AD108F9
:1037600043E050E06AEE70E0C6010E94C71D892B5D
:10377000F1F4680122E0C20ED11C45E050E065EE94
:1037800070E0C6010E94C71D892B21F4680187E003
:10379000C80ED11CE114F10419F0D701CD92DC92CE
:1037A000C111FFC060E070E080E89FE703C143E023
:1037B00050E062EE70E0C6010E94C71D892B51F4F3
:1037C000E114F10409F4F2C00E5F1F4FF7011183F9
:1037D0000083ECC0680160E070E0CB0100E010E025
:1037E000F601D0EDD70DDA3058F52C2F2260622E7D
:1037F0002C2F2870C2FF05C0211128C00F5F1F4F5A
:1038000025C0222311F001501109A5E0B0E09B0171
:10381000AC010E94F31F4B015C01880C991CAA1C8F
:10382000BB1CC501B4016D0F711D811D911D68394F
:10383000A9E97A078A07A9E19A0740F0C66005C09E
:10384000DE3F51F4C3FD44C0C8606C2EBFEFCB1AFD
:10385000DB0A7080C62DC4CF2D2F2F7D2531C1F5F9
:1038600040814D3211F4C06106C04B3221F03196D7
:1038700021E030E006C03296D60111964C9122E04C
:1038800030E0A0EDA40FAA3018F0E21BF30B20C02B
:1038900040E050E04038BCE05B075CF49A01220F46
:1038A000331F220F331F420F531F440F551F4A0F60
:1038B000511D3196DF0111972C91A0EDA20FAA3076
:1038C00048F3C4FF03C0519541955109040F151FDA
:1038D000C1FF07C0E114F10421F03197D701ED9346
:1038E000FC930E942E19C370C33019F06B017C0148
:1038F00006C06B017C01F7FAF094F7F8F09420E031
:1039000030E0A901C701B6010E94B718882309F465
:1039100045C017FF06C0119501951109C1E0D1E01E
:1039200002C0C9E1D1E05E01B8E1AB1AB1084601BD
:10393000BE2DAF2D90E2E92EF12C0E151F0584F05F
:10394000FE012591359145915491B4018B2F9A2F09
:103950000E94351A4B01B82FA92F0E191F09EDCF60
:103960002497F594E794CA15DB0539F76401EB2E2B
:10397000FA2E8E2D880F8F2D881F8F3F49F020E063
:1039800030E0A901C701B6010E94B718811106C035
:1039900082E290E09093FE048093FD04C701B6019B
:1039A00009C060E070E080E89FEF04C060E070E074
:1039B00080EC9FE7CDB7DEB7EEE00C941E202830F8
:1039C00008F027E03327DA01990F311D87FD916058
:1039D00000966105710539F432602E5F3D9330E346
:1039E0002A95E1F708959F3F30F080387105610511
:1039F00009F03C5F3C5F3D93913008F08068911D79
:103A0000DF93CF931F930F93FF92EF92192F987F1D
:103A10009695E92F96959695E90FFF27E958FE4F61
:103A200099273327EE24FF24A701E7010590089486
:103A3000079428F4360FE71EF81E491F511D660F24
:103A4000771F881F991F0694A1F70590079428F403
:103A5000E70EF81E491F561FC11D770F881F991FBB
:103A6000661F0694A1F70590079428F4F80E491FE5
:103A7000561FC71FD11D880F991F661F771F0694F9
:103A8000A1F70590079420F4490F561FC71FD81FB0
:103A9000990F661F771F881F0694A9F784911095C8
:103AA000177041F0D695C79557954795F794E794C9
:103AB0001A95C1F7EDE1F1E06894159015913591F3
:103AC0006591959105907FE27395E118F10A430B9A
:103AD000560BC90BD009C0F7E10CF11E431F561F4E
:103AE000C91FD01D7EF4703311F48A95E6CFE89497
:103AF000015030F0080F0AF40027021708F4202FB5
:103B00002395022F7A3328F079E37D932A95E9F7FC
:103B100010C07D932A9589F60694979567953795F9
:103B200017951794E118F10A430B560BC90BD009EE
:103B300098F023957E9173957A3308F070E37C9327
:103B40002013B8F77E9170617D9330F0839571E317
:103B50007D9370E32A95E1F71124EF90FF900F9188
:103B60001F91CF91DF91992787FD9095089591112D
:103B70000C94B01F803219F089508550C8F7089511
:103B8000FB01DC0105900D920020E1F70895FB0197
:103B9000DC014150504088F08D9181341CF08B3510
:103BA0000CF4805E659161341CF06B350CF4605E42
:103BB000861B611171F3990B0895881BFCCFFB01E3
:103BC000DC018D91019080190110D9F3990B0895B2
:103BD000FB01DC0101900D920020E1F70895FB014B
:103BE000DC014150504030F08D910190801919F462
:103BF0000020B9F7881B990B0895BB274A3031F490
:103C0000992322F4BDE2909581959F4F0C94091E53
:103C1000BB27FB015527AA27880F991FAA1FA417A6
:103C200010F0A41B83955051B9F7A05DAA3308F09A
:103C3000A95DA193009779F7B111B1931192CB01CE
:103C40000C94B31F4F925F926F927F929F92AF92AC
:103C5000BF92CF92DF92EF92FF920F931F93CF9379
:103C6000DF93CDB7DEB729970FB6F894DEBF0FBE4E
:103C7000CDBF6A01122FB02E2BE3201720F0FF24B6
:103C8000F394F00E02C0BCE3FB2E0F2D27E0AE0133
:103C90004F5F5F4F0E94DF1CAC018981982F9970A4
:103CA000913031F0E1FC06C0E0FE06C090E205C0B4
:103CB0009DE203C09BE201C090E0EE2DE07183FF26
:103CC0003CC0911102C083E001C084E0811718F468
:103CD000212F281B01C020E0E1110BC0F601822F2B
:103CE00030E2882319F031938150FBCFC20ED11CF2
:103CF00020E0992329F0D6019C93F60131966F01BB
:103D0000C6010396E2FE0AC03EE4D6013C9341E4BC
:103D100011964C93119712963C9306C03EE6F6011D
:103D2000308341E641833283FC01322F40E233236A
:103D300009F442C041933150FACF82FF44C091113F
:103D400002C083E001C084E0811718F4212F281BF2
:103D500001C020E0E1110BC0F601822F30E2882380
:103D600019F031938150FBCFC20ED11C20E0992372
:103D700029F0D6019C93F60131966F01C601039696
:103D8000E2FE0BC039E4D6013C933EE411963C932D
:103D9000119736E412963C9307C039E6F60130835A
:103DA0003EE6318336E63283FC01322F40E2332394
:103DB00019F041933150FBCFFC01E20FF11D10824D
:103DC0008EEF9FEFB7C0F1E0911101C0F0E06F2FCF
:103DD00070E01416150624F49A012F5F3F4F02C0BD
:103DE00021E030E0260F371FBB2029F06B2D70E05B
:103DF0006F5F7F4F02C060E070E0260F371F612FBA
:103E000070E0261737071CF4121B212F01C020E099
:103E10003E2D387159F4D601322F60E2332319F068
:103E20006D933150FBCFC20ED11C20E0FF2331F047
:103E3000D6019C93B6016F5F7F4F6B01E1110BC000
:103E4000F601922F30E3992319F031939150FBCF73
:103E5000C20ED11C20E09F2D940F3A81782F7071F3
:103E6000A72E84FF03C0313309F49150191624F4AE
:103E7000993018F098E001C091E0E42F852F57FFAA
:103E800002C0E0E080E06E2F782FE0E0F0E0AEE2EC
:103E90009A2E3A01691A71082A01461A570A0B2DFF
:103EA00010E01195019511096F3F8FEF780729F404
:103EB000D6019C92C60101966C014617570784F003
:103EC000661677066CF47F01E40CF51CA1E0B0E007
:103ED000AC0FBD1FEA0EFB1ED7011196BC9002C0AD
:103EE00090E3B92E615071093196C60101967C01AB
:103EF0006017710724F0D601BC926C01D5CF64170E
:103F0000750741F4363320F4353321F4A11002C093
:103F100081E3B82EF601B082F701822F90E2882368
:103F200019F091938150FBCFF701E20FF11D108240
:103F300080E090E029960FB6F894DEBF0FBECDBFAB
:103F4000DF91CF911F910F91FF90EF90DF90CF9075
:103F5000BF90AF909F907F906F905F904F9008952B
:103F6000992788270895DC01FC01672F7191772339
:103F7000E1F7329704C07C916D9370836291AE1724
:103F8000BF07C8F30895DC01CB01FC01F999FECF0E
:103F900006C0F2BDE1BDF89A319600B40D924150D1
:103FA0005040B8F70895F999FECF92BD81BDF89AB7
:103FB000992780B50895DC01CB0103C02D910E94A3
:103FC000E61F41505040D0F70895262FF999FECFB3
:103FD0001FBA92BD81BD20BD0FB6F894FA9AF99A26
:103FE0000FBE019608950E943520A59F900DB49FA5
:103FF000900DA49F800D911D112408952F923F9242
:104000004F925F926F927F928F929F92AF92BF92E8
:10401000CF92DF92EF92FF920F931F93CF93DF9394
:10402000CDB7DEB7CA1BDB0B0FB6F894DEBF0FBEF1
:10403000CDBF09942A88398848885F846E847D843E
:104040008C849B84AA84B984C884DF80EE80FD8040
:104050000C811B81AA81B981CE0FD11D0FB6F894B6
:10406000DEBF0FBECDBFED010895A29FB001B39F8B
:10407000C001A39F700D811D1124911DB29F700D71
:0C408000811D1124911D0895F894FFCFBC
:10408C0003000300015A656E6974204D756C7469E8
:10409C006D657465720041542B43574A41503D2263
:1040AC00796F75725F77696669222C22796F7572E8
:1040BC005F70617373776F72642200436F6E6E650D
:1040CC006374696E67546F576966690041542B437A
:1040DC00494653520057616974696E6720666F7266
:1040EC002049500041542B4349504D55583D310007
:1040FC004369706D75782073657475700041542B2D
:10410C004349505345525645523D312C313233348C
:10411C0000456E61626C696E6720736572766572BC
:10412C000041540041542B52535400526573657432
:10413C0074696E6720455350004154453000446902
:10414C007361626C696E67206563686F0041542B04
:10415C0043574D4F44453D310053746174696F6E44
:10416C004D6F646553657475700041542B43495011
:10417C0053454E443D0033004155544F0045727237
:10418C006F723A20556E6B6E6F776E20636F6D6D2C
:10419C00616E64004D756C74696D65746572205A3E
:1041AC00454E4954004F4B002A49444E3F004D4563
:1041BC0041530052455300564F4C54003A52414E15
:1041CC0047450043555252005241570044494F4411
:1041DC000054454D50003A005254443F004E544355
:1041EC003F0043414C005652454600534C4F5045FE
:1041FC000056344443005634304443005634303077
:10420C0044430041354443004D4134304443004D58
:10421C00413430304443004F4646534554005231EC
:10422C00005232005254445F5230004E54435F529D
:10423C003235005254445F434F4546465F41004E71
:10424C0054435F434F4546465F4200574946492019
:10425C00434F4E4E4543544544005749464920442C
:10426C004953434F4E4E4543540057494649204706
:10427C004F54204950002B43494653523A53544112
:10428C0049502C002B43494653523A5354414D410B
:10429C00432C004552524F52004641494C002B4989
:1042AC0050442C00436F756C646E277420636F6EE2
:1042BC006E6563740057696669206861732070725B
:1042CC006F626C656D005769666920646973616221
:1042DC006C656400553D00204F766572466C6F77B7
:1042EC0000493D00523D00204F76657252616E6769
:1042FC006500543D002052544400204E54430000AD
:00000001FF
